:100000000C945D000C9485000C9485000C94850084
:100010000C9485000C9485000C9485000C9485004C
:100020000C9485000C9485000C9485000C941A05A2
:100030000C9485000C9485000C9485000C9485002C
:100040000C9478040C9485000C94E8040C94C2047D
:100050000C9485000C9485000C9485000C9485000C
:100060000C9485000C94850000000008000201003B
:100070000003040700000000000000000000000072
:10008000250028002B0000000000240027002A0083
:10009000040404040404040402020202020203032E
:1000A0000303030301020408102040800102040836
:1000B0001020010204081020D60511241FBECFEF26
:1000C000D8E0DEBFCDBF12E0A0E0B1E0E6E3F7E1AB
:1000D00002C005900D92A032B107D9F722E0A0E24C
:1000E000B2E001C01D92A63FB207E1F710E0CDE5F6
:1000F000D0E004C02197FE010E94A109CC35D107B0
:10010000C9F70E944D060C94990B0C94000090E0E6
:10011000FC01EC55FF4F249180579F4FFC018491C7
:10012000882399F090E0880F991FFC01EA57FF4F50
:10013000A591B491FC01E458FF4F859194918FB73C
:10014000F894EC91E22BEC938FBF089590E0FC01C2
:10015000E859FF4F2491FC01EC55FF4F3491FC010D
:10016000E057FF4FE491EE23C9F0222339F023300A
:1001700001F1A8F4213019F1223029F1F0E0EE0F5D
:10018000FF1FE458FF4FA591B4918FB7F894EC91FD
:10019000611126C030953E233C938FBF08952730D0
:1001A000A9F02830C9F0243049F7809180008F7D74
:1001B00003C0809180008F7780938000DFCF84B56B
:1001C0008F7784BDDBCF84B58F7DFBCF8091B0006E
:1001D0008F778093B000D2CF8091B0008F7DF9CF20
:1001E0003E2BDACFAF92BF92CF92DF92EF92FF9287
:1001F0000F931F93CF93DF936C017B018B01040F4F
:10020000151FEB015E01AE18BF08C017D10759F0EA
:100210006991D601ED91FC910190F081E02DC6012C
:100220000995892B79F7C501DF91CF911F910F9126
:10023000FF90EF90DF90CF90BF90AF900895FC01BA
:10024000538D448D252F30E0842F90E0821B930B3B
:10025000541710F0CF96089501970895FC01918DE1
:10026000828D981761F0A28DAE0FBF2FB11D5D96E4
:100270008C91928D9F5F9F73928F90E008958FEF86
:100280009FEF08952FB7F89480912602909127024E
:10029000A0912802B09129022FBF8093320290933F
:1002A0003302A0933402B09335028AE292E00E94B6
:1002B0002E0197FF26C02FB7F894809126029091C7
:1002C0002702A0912802B09129022FBF409132024B
:1002D000509133026091340270913502841B950B6A
:1002E000A60BB70B40912E0250912F026091300265
:1002F0007091310284179507A607B707B0F28FEF08
:100300009FEF0895FC01918D828D981731F0828DB9
:10031000E80FF11D858D90E008958FEF9FEF089510
:10032000FC01918D228D892F90E0805C9F4F821B74
:1003300091098F73992708958AE292E00E949001B3
:1003400021E0892B09F420E0822F089580E090E0DD
:10035000892B29F00E949C0181110C9400000895C2
:10036000FC01A48DA80FB92FB11DA35ABF4F2C912A
:10037000848D90E001968F739927848FA689B78921
:100380002C93A089B1898C91837080648C93938D18
:10039000848D981306C00288F389E02D80818F7DBB
:1003A00080830895EF92FF920F931F93CF93DF9373
:1003B000EC0181E0888F9B8D8C8D98131AC0E889A1
:1003C000F989808185FF15C09FB7F894EE89FF8970
:1003D0006083E889F98980818370806480839FBF0E
:1003E00081E090E0DF91CF911F910F91FF90EF900E
:1003F0000895F62E0B8D10E00F5F1F4F0F7311271E
:10040000E02E8C8D8E110CC00FB607FCFACFE88958
:10041000F989808185FFF5CFCE010E94B001F1CF2F
:10042000EB8DEC0FFD2FF11DE35AFF4FF0829FB7CC
:10043000F8940B8FEA89FB8980818062CFCFCF93BC
:10044000DF93EC01888D8823B9F0AA89BB89E889FC
:10045000F9898C9185FD03C0808186FD0DC00FB6A2
:1004600007FCF7CF8C9185FFF2CF808185FFEDCF20
:10047000CE010E94B001E9CFDF91CF910895CF92D4
:10048000DF92EF92FF92CF93DF93EC01603282E034
:100490007807CCF5653B710514F064EB70E0898159
:1004A00028E830E0281B310987FD3395220F331FE0
:1004B000220F331F6901330FEE08FF088A8128E5F8
:1004C00032E0281B310987FD3395220F331F220F9D
:1004D000331F032E000C440B550B2C193D094E09FC
:1004E0005F09DB0177FF02C0B0E0A0E00E942509B0
:1004F00024EB30E040E050E00E94FB08C20ED31E27
:10050000E41EF51EB601E881EC3070F5298188E81B
:1005100090E0821B910927FD9395880F991F880F02
:10052000991F681779077CF02A8188E592E0821B81
:10053000910927FD9395880F991F880F991F6817B8
:1005400079070CF4CB010297880F991F4FB7F894E5
:100550002E2F30E0F901EE0FFF1FE20FF31FE953DA
:10056000FD4F928381834FBFDF91CF91FF90EF903A
:10057000DF90CF9008951F93CF93DF93EC01162F58
:1005800088818C3008F04DC0862F0E9487008881BA
:10059000282F30E0F901EE0FFF1FE20FF31FE953A0
:1005A000FD4F1F736081607C612B608319821A820A
:1005B0002CE0622F0E949509829FB001112430E047
:1005C00020E0AB01420F531FFA01EE0FFF1FE40FB3
:1005D000F51FE953FD4F908196FD16C02F5F3F4FE9
:1005E0002C30310571F781110FC01092800082E02C
:1005F000809381001092850010928400B19A8091BE
:100600006F00826080936F00E8818E2F90E0FC0184
:10061000EE0FFF1FE80FF91FE953FD4F8081806443
:1006200080838881DF91CF911F910895FC01019013
:100630000020E9F73197AF01481B590BBC018AE252
:1006400092E00C94F200CF93DF930E941603EC012A
:100650008CE191E00E9416038C0F9D1FDF91CF91DA
:1006600008958F929F92AF92BF92CF92DF92EF92B6
:10067000FF920F931F93CF93DF93CDB7DEB7A19770
:100680000FB6F894DEBF0FBECDBF6C01990FEE0818
:10069000FF08F7FE47C06DE28AE292E00E94D201B5
:1006A0008C0122273327A9012C193D094E095F0926
:1006B00019A2CE0181967C019AE0892E912CA12C61
:1006C000B12CCA01B901A50194010E946409605DC1
:1006D000F70162937F01211531054105510589F725
:1006E00090E080E0309719F0CF010E941603080FC8
:1006F000191F8CE191E00E941603800F911FA196B3
:100700000FB6F894DEBF0FBECDBFDF91CF911F9122
:100710000F91FF90EF90DF90CF90BF90AF909F90A0
:100720008F900895A701960119A28E010F5D1F4FAA
:100730008AE0C82ED12CE12CF12CCA01B901A70105
:1007400096010E946409605DF80162938F01211592
:1007500031054105510589F7309729F0CF010E94F5
:1007600016038C01C6CF10E000E0C3CF0F931F9398
:10077000CF93DF93EC0188819981009759F02A810A
:100780003B812617370730F081E0DF91CF911F9131
:100790000F9108958B016F5F7F4F0E94CC0A0097E5
:1007A00059F0998388831B830A832C813D81232BF5
:1007B00059F7FC011082E8CF80E0E7CFCF93DF93B9
:1007C000EC0188819981009711F00E94430A1982F7
:1007D00018821D821C821B821A82DF91CF9108959C
:1007E000CF93DF93EC0170E060E00E94B6038111CB
:1007F00005C0CE01DF91CF910C94DE031D821C82D7
:100800006EE171E088819981DF91CF910C94920B18
:100810009F92AF92BF92CF92DF92EF92FF920F938F
:100820001F93CF93DF93EC016B015A01EE24E39405
:10083000F12C452B29F4F12CE12CAA24A394B12C02
:10084000198218821B821A821D821C82CE010E948C
:10085000F003D60114960D911C91E016F10658F59F
:10086000A016B10608F48501D601ED91FC9111970F
:10087000E00FF11F908010828D919C91E80EF91E7F
:10088000E114F10471F0F70101900020E9F73197CC
:100890005F01AE18BF08B501CE010E94B6038111F9
:1008A00017C0CE010E94DE03F60180819181080FFE
:1008B000191FD8019C92CE01DF91CF911F910F910A
:1008C000FF90EF90DF90CF90BF90AF909F900895F2
:1008D000BD82AC82B701888199810E94920BE4CFDE
:1008E000FC0180819181009711F00C94430A0895D6
:1008F0001F920F920FB60F9211242F933F938F9355
:100900009F93AF93BF938091260290912702A0916D
:100910002802B09129023091250223E0230F2D37C0
:1009200058F50196A11DB11D209325028093260242
:1009300090932702A0932802B0932902809121026C
:1009400090912202A0912302B09124020196A11D50
:10095000B11D8093210290932202A0932302B093B1
:100960002402BF91AF919F918F913F912F910F9052
:100970000FBE0F901F90189526E8230F0296A11D19
:10098000B11DD2CF1F920F920FB60F9211242F9349
:100990003F934F935F936F937F938F939F93AF9307
:1009A000BF93EF93FF938AE292E00E94B001FF9120
:1009B000EF91BF91AF919F918F917F916F915F91D7
:1009C0004F913F912F910F900FBE0F901F90189550
:1009D0001F920F920FB60F9211242F938F939F9314
:1009E000EF93FF93E0913A02F0913B028081E09116
:1009F0004002F091410282FD1BC090818091430230
:100A00008F5F8F7320914402821741F0E09143027F
:100A1000F0E0E65DFD4F958F80934302FF91EF91EB
:100A20009F918F912F910F900FBE0F901F9018954F
:100A30008081F4CF1F920F920FB60F9211242F9343
:100A40003F934F935F936F937F938F939F93AF9356
:100A5000BF93CF93DF93EF93FF9380912002C091D8
:100A6000EB02D0E087FF24C0109285001092840032
:100A7000809120028F5F8093200280912002082EB7
:100A8000000C990B8C179D0724F4809120028C3068
:100A9000C4F18091840090918500049680349C4933
:100AA00008F47AC08091840090918500049676C005
:100AB00080912002082E000C990B8C179D07C4F61C
:100AC000E09120028E2FEE0F990BFC01EE0FFF1F1D
:100AD000E80FF91FE953FD4F808186FFC9CFE091F0
:100AE00020028E2FEE0F990BFC01EE0FFF1FE80F77
:100AF000F91FE953FD4F808160E08F730E94A600CB
:100B0000B7CF2091840030918500E09120028E2F94
:100B1000EE0F990BFC01EE0FFF1FE80FF91FE953D1
:100B2000FD4F81819281820F931F90938900809362
:100B30008800E09120028E2FEE0F990BFC01EE0F42
:100B4000FF1FE80FF91FE953FD4F808186FF11C099
:100B5000E09120028E2FEE0F990BFC01EE0FFF1F8C
:100B6000E80FF91FE953FD4F808161E08F730E9408
:100B7000A600FF91EF91DF91CF91BF91AF919F912F
:100B80008F917F916F915F914F913F912F910F9036
:100B90000FBE0F901F90189580E49CE990938900F8
:100BA000809388008FEF80932002E3CF10922D0274
:100BB00010922C0288EE93E0A0E0B0E080932E0229
:100BC00090932F02A0933002B09331028EE091E017
:100BD00090932B0280932A0285EC90E09093370249
:100BE0008093360284EC90E090933902809338022F
:100BF00080EC90E090933B0280933A0281EC90E08D
:100C000090933D0280933C0282EC90E090933F02EF
:100C100080933E0286EC90E09093410280934002E4
:100C20001092430210924402109245021092460222
:100C30008091EB028C3048F591E0980F9093EB0295
:100C40008093EF0290E0FC01EE0FFF1FE80FF91F09
:100C5000E953FD4F88EB9BE0928381838091EB0207
:100C60008C30B8F491E0980F9093EB028093EC02F3
:100C700090E0FC01EE0FFF1FE80FF91FE953FD4F55
:100C800088EB9BE09283818308958FEF8093EF023E
:100C9000E5CF8FEF8093EC020895CF93DF93CDB72C
:100CA000DEB72C970FB6F894DEBF0FBECDBF789499
:100CB00084B5826084BD84B5816084BD85B5826061
:100CC00085BD85B5816085BD80916E008160809312
:100CD0006E0010928100809181008260809381007B
:100CE000809181008160809381008091800081608B
:100CF000809380008091B10084608093B1008091E6
:100D0000B00081608093B00080917A00846080930D
:100D10007A0080917A00826080937A0080917A00D4
:100D2000816080937A0080917A00806880937A0055
:100D30001092C100E0913A02F0913B0282E0808380
:100D4000E0913602F09137021082E0913802F09182
:100D500039028FEC808310924202E0913E02F091C2
:100D60003F0286E08083E0913C02F0913D02808169
:100D700080618083E0913C02F0913D028081886037
:100D80008083E0913C02F0913D0280818068808305
:100D9000E0913C02F0913D0280818F7D808369E08B
:100DA00070E08FEE92E00E94BB026AE070E08CEE91
:100DB00092E00E94BB0288E00E9487006AE570E032
:100DC0008FEE92E00E943F026AE570E08CEE92E0C6
:100DD0000E943F0260E088E00E94A6008FE191E05F
:100DE0000E94230389E0482E512C612C712C90E045
:100DF000892E90E0992E8AE292E00E9490011816C6
:100E000019060CF06AC018861F821A8619861C867D
:100E10001B86CE0107960E94F0030E9442010B85BB
:100E20001C8597FD1CC08A309105C9F089831A8200
:100E30000F5F1F4FB801CE0107960E94B6038823AB
:100E400061F32F8138858B859C85BE016F5F7F4F55
:100E5000820F931F0E94920B1C870B87DECFCF80DF
:100E6000D884C114D10429F076010115110509F0C7
:100E700041C04B855C854115510559F1EF81F885DD
:100E800010E0309709F473C01081153409F06FC079
:100E9000BE01695F7F4FCE0101960E9408048981DF
:100EA0009A81C12CD12C7601009719F00E94B308C9
:100EB0006B01CE0101960E947004CA94CD2809F0FE
:100EC0004FC061E088E00E94A6008BE491E00E94A0
:100ED0002303CE0107960E9470048114910409F443
:100EE0008ACF0E949C01882309F485CF0E940000CC
:100EF00082CF750157018FEFA81AB80AF7018081D8
:100F0000082E000C990B0E94EF08892B91F70150D5
:100F100011090C0D1D1DF8018081082E000C990B84
:100F20000E94EF08892B31F00E151F0518F00150B3
:100F30001109F1CFA8014F5F5F4F4E195F095C8720
:100F40004B87CE14DF0420F4B701C6010E94890B41
:100F5000EF81F8858B859C85E80FF91F108289CF7A
:100F600060E088E00E94A6008BE791E0B0CFBE0170
:100F7000695F7F4FCE0101960E94080489819A81A2
:100F8000C12CD12C7601009719F00E94B3086B0197
:100F9000CE0101960E94700485EBC816D10408F0BA
:100FA00098CF0E945B08C6010A97813A910590F19B
:100FB0000E945B08A30192010E94FB086830710542
:100FC0008105910539F561E088E00E94A60089E974
:100FD00091E00E9423038FEB91E00E9423031F7D89
:100FE000103569F4B6018FEE92E00E943F0281E075
:100FF00092E00E941603C6010E9431036ACF1435A5
:1010000009F067CFB6018CEE92E00E943F0280E1CA
:1010100092E0EFCF60E088E00E94A600E0CF8F92E0
:101020009F92AF92BF92CF92DF92EF92FF92CF93B7
:10103000DF93EC01688179818A819B81611571055B
:101040008105910521F464E279ED8BE597E02DE1CE
:1010500033EF41E050E00E94FB0849015A019B0137
:10106000AC01A7EAB1E40E941A096B017C01ACEE65
:10107000B4EFA50194010E942809C60ED71EE81EF0
:10108000F91EF7FE06C081E0C81AD108E10880E821
:10109000F80AC882D982EA82FB82C701B6019F772B
:1010A000DF91CF91FF90EF90DF90CF90BF90AF9006
:1010B0009F908F9008958F929F92AF92BF92CF9200
:1010C000DF92EF92FF926091000170910101809197
:1010D000020190910301611571058105910521F4CB
:1010E00064E279ED8BE597E02DE133EF41E050E0EC
:1010F0000E94FB0849015A019B01AC01A7EAB1E437
:101100000E941A096B017C01ACEEB4EFA5019401B9
:101110000E942809C60ED71EE81EF91EF7FE06C05B
:1011200081E0C81AD108E10880E8F80AC0920001FD
:10113000D0920101E0920201F0920301C701B601D1
:101140009F77FF90EF90DF90CF90BF90AF909F90F0
:101150008F900895609300017093010180930201C4
:101160009093030108951F93FC0199278827BC01E0
:10117000E89411911032E9F3193010F01E30C8F3E1
:101180001B3251F01D3249F4689406C00E94DA08FF
:10119000610F711D811D911D119110531A30B0F313
:1011A0003EF490958095709561957F4F8F4F9F4F3E
:1011B0001F910895592F482F372F262F660F771F1D
:1011C000881F991F660F771F881F991F620F731F53
:1011D000841F951F660F771F881F991F089591110F
:1011E0000C94F808803219F089508550C8F708959A
:1011F000992788270895052E97FB1EF400940E94D6
:10120000120957FD07D00E94640907FC03D04EF471
:101210000C94120950954095309521953F4F4F4FB2
:101220005F4F089590958095709561957F4F8F4F92
:101230009F4F08950E948609A59F900DB49F900D21
:10124000A49F800D911D11240895B7FF0C941A09D5
:101250000E941A09821B930B08952F923F924F927E
:101260005F926F927F928F929F92AF92BF92CF9236
:10127000DF92EF92FF920F931F93CF93DF93CDB73F
:10128000DEB7CA1BDB0B0FB6F894DEBF0FBECDBFB7
:1012900009942A88398848885F846E847D848C8488
:1012A0009B84AA84B984C884DF80EE80FD800C8191
:1012B0001B81AA81B981CE0FD11D0FB6F894DEBF74
:1012C0000FBECDBFED010895A1E21A2EAA1BBB1BD4
:1012D000FD010DC0AA1FBB1FEE1FFF1FA217B30702
:1012E000E407F50720F0A21BB30BE40BF50B661F18
:1012F000771F881F991F1A9469F7609570958095DC
:1013000090959B01AC01BD01CF010895A29FB00152
:10131000B39FC001A39F700D811D1124911DB29F29
:10132000700D811D1124911D0895991B79E004C051
:10133000991F961708F0961B881F7A95C9F7809514
:101340000895EE0FFF1F0590F491E02D09940F937F
:101350001F93CF93DF938230910510F482E090E0E9
:10136000E091F402F091F50230E020E0B0E0A0E07E
:10137000309799F42115310509F44AC0281B390B1F
:1013800024303105D8F58A819B816115710589F179
:10139000FB0193838283FE0111C040815181028150
:1013A000138148175907E0F04817590799F4109727
:1013B00061F012960C93129713961C933296CF01FC
:1013C000DF91CF911F910F9108950093F402109334
:1013D000F502F4CF2115310551F04217530738F0CB
:1013E000A901DB019A01BD01DF01F801C1CFEF01C5
:1013F000F9CF9093F5028093F402CDCFFE01E20F76
:10140000F31F819391932250310939832883D7CFD9
:101410002091F2023091F302232B41F42091060136
:10142000309107013093F3022093F20220910401DE
:10143000309105012115310541F42DB73EB740919A
:10144000080150910901241B350BE091F202F09143
:10145000F302E217F307A0F42E1B3F0B28173907FE
:1014600078F0AC014E5F5F4F2417350748F04E0F00
:101470005F1F5093F3024093F202819391939FCFA9
:10148000F0E0E0E09CCFCF93DF930097E9F0FC0120
:10149000329713821282A091F402B091F502ED010D
:1014A00030E020E01097A1F420813181820F931F5A
:1014B0002091F2023091F3022817390709F061C038
:1014C000F093F302E093F202DF91CF910895EA01E5
:1014D000CE17DF07E8F54A815B819E014115510572
:1014E000B1F7E901FB83EA8349915991C40FD51FF4
:1014F000EC17FD0761F4808191810296840F951F9E
:10150000E90199838883828193819B838A83F0E0B8
:10151000E0E012968D919C9113970097B9F52D916B
:101520003C911197CD010296820F931F2091F202F8
:101530003091F3022817390739F6309751F5109298
:10154000F5021092F402B093F302A093F202BCCF22
:10155000D383C28340815181840F951FC817D90757
:1015600061F44E5F5F4F88819981480F591F518305
:1015700040838A819B81938382832115310509F001
:10158000B0CFF093F502E093F4029ECFFD01DC01B1
:10159000C0CF13821282D7CFB0E0A0E0E2EDFAE034
:1015A0000C942F098C01009751F4CB010E94A709DC
:1015B0008C01C801CDB7DEB7E0E10C944B09FC010A
:1015C000E60FF71F9C0122503109E217F30708F4D8
:1015D0009DC0D901CD91DC911197C617D70798F01E
:1015E000C530D10530F3CE0104978617970708F36D
:1015F000C61BD70B2297C193D1936D937C93CF01D8
:101600000E94430AD6CF5B01AC1ABD0A4C018C0E76
:101610009D1EA091F402B091F502512C412CF12CA9
:10162000E12C109731F58091F2029091F302881528
:10163000990509F05CC04616570608F058C080911D
:10164000040190910501009741F48DB79EB7409138
:10165000080150910901841B950BE817F90708F060
:1016600055C0F093F302E093F202F90171836083B5
:10167000A0CF8D919C91119712966C901297139612
:101680007C901397A815B90559F56C0142E0C40E7A
:10169000D11CCA14DB0420F1AC014A195B09DA0140
:1016A0001296159780F06282738251834083D9012C
:1016B0006D937C93E114F10471F0D7011396FC93C0
:1016C000EE93129776CF22968C0F9D1FF90191838E
:1016D0008083F301EFCFF093F502E093F40269CF3A
:1016E0004816590608F42C017D01D3019ACFCB018D
:1016F0000E94A7097C01009749F0AE01B8010E9441
:10170000890BC8010E94430A870153CF10E000E013
:1017100050CFFB01DC0102C001900D9241505040BE
:10172000D8F70895FB01DC0101900D920020E1F74C
:061730000895F894FFCFBC
:10173600010000000000F602800000000000D20157
:10174600F2001F011F0290012E0182010D0A0048BE
:10175600617264776172652052656164792E2045F5
:1017660064676520414920446961676E6F737469D7
:101776006373204163746976652E00414C4552546B
:101786003A20284D414E55414C204F56455252491C
:10179600444529202D204D6F746F72204A616D20BB
:1017A6005072656469637465642E005359535445D9
:1017B6004D2052455345543A204D6F746F72732035
:1017C6006865616C7468792E00414C4552543A2024
:1017D6004F76657263757272656E742064657465A2
:1017E600637465642120283835306D41292E0050F8
:1017F600524544494354494F4E3A20486967682048
:101806006672696374696F6E20696E2050616E201E
:10181600476561722E204661696C757265206C6938
:101826006B656C7920696E20313420646179732E82
:10183600004D6F7665642050616E20746F3A20000B
:101846004D6F7665642054696C7420746F3A20007D
:00000001FF
